:020000040800F2
:1000000098130010C9010008873E00081713000864
:10001000853E00085B050008413F00080000000025
:100020000000000000000000000000008B3E0008FF
:10003000C105000800000000893E00088D3E000850
:10004000E3010008E3010008E3010008E301000800
:10005000E3010008E3010008E3010008E3010008F0
:10006000E3010008E3010008E3010008E3010008E0
:10007000E3010008E3010008E3010008E3010008D0
:10008000E3010008E3010008E3010008E3010008C0
:10009000E3010008E3010008E3010008E3010008B0
:1000A000E3010008E3010008E3010008E3010008A0
:1000B000E3010008E3010008E3010008E301000890
:1000C000E3010008E3010008E3010008E301000880
:1000D000E3010008E3010008E3010008E301000870
:1000E000E3010008E3010008E3010008E301000860
:1000F000E3010008E3010008E3010008E301000850
:10010000E3010008E3010008E3010008E30100083F
:10011000E3010008E3010008E3010008E30100082F
:10012000E3010008E3010008E3010008E30100081F
:10013000E3010008E3010008E3010008E30100080F
:10014000E3010008E3010008E3010008E3010008FF
:10015000E3010008E3010008E3010008E3010008EF
:10016000E3010008E3010008E3010008E3010008DF
:10017000E3010008E3010008E301000800000000BB
:10018000E3010008E3010008E3010008E3010008BF
:10019000E3010008E3010008E3010008E3010008AF
:1001A000E3010008E30100085D050008DFF814D052
:1001B00000F0C0F900F05EF8004800478D420008EA
:1001C00000F03AF9981300100648804706480047A7
:1001D000FEE7FEE7FEE7FEE7FEE7FEE7FEE7FEE7F7
:1001E000FEE7FEE7313F0008AD0100082DE9F05FB2
:1001F0000546002092469B46884606468146402496
:100200001BE0284641464746224600F001F9534686
:100210005A46C01A914110D311461846224600F0A2
:10022000E8F82D1A67EB01084F462246012000210D
:1002300000F0DFF817EB00094E41201EA4F1010485
:10024000DFDC484631462A464346BDE8F09FD2B23D
:1002500001E000F8012B491EFBD270470022F6E7AF
:1002600010B513460A4604461946FFF7F0FF20462C
:1002700010BD000070B5054C054D03E0206820441A
:100280008047241DAC42F9D170BD0000B00E0308B8
:10029000BC0E03082DE9F041074615460E46102016
:1002A00004F03CF804000AD06760C4E9026500F07D
:1002B000BFF80168216004600020BDE8F0810120E2
:1002C000FBE72DE9FE4F81EA030404F0004421F02E
:1002D000004100944FF0000B23F0004350EA01046A
:1002E0005ED052EA03045BD0C3F30A54C1F30A554B
:1002F0002C44A4F2F3340194A0FB0254C1F3130183
:1003000041F48011C3F3130343F4801301FB02444F
:1003100000FB034E840A970A44EA815447EA835754
:10032000A4FB076802958D0A05FB07854FEA932C0D
:1003300004FB0C542705029D4FEA065847EA16377E
:10034000B5EB08056EEB070C870E920E47EA811796
:1003500042EA8312A7FB0201B6EB0B0164EB000437
:100360002B0D43EA0C335E1844EB1C50DA46514621
:10037000E7FB0201C5F313044FEA0B3343EA1453BE
:100380004FEA0432019C43EA0603A4F10C040294F0
:10039000009CCDE900B400F07FF803B0BDE8F08F19
:1003A00000200146F9E70EB540F2334102910021E9
:1003B000CDE900110A460B4600F06EF803B000BD0F
:1003C000C1F30A5210B5C1F3130140F2FF3341F4F7
:1003D00080119A4201DA002010BD40F233439A4264
:1003E000A2F2334203DC524200F012F810BD9040FA
:1003F00010BD202A04DB203A00FA02F100207047E9
:100400009140C2F1200320FA03F319439040704752
:10041000202A04DB203A21FA02F00021704721FA59
:1004200002F3D040C2F120029140084319467047C0
:1004300000487047640000102DE9F0410646FFF7C0
:10044000F7FF8046454613E016B1E068B0420ED192
:1004500020682860D4E90101D8F800708847204658
:1004600003F0ECFED8F80000B842EBD100E02546DE
:100470002C68002CE8D1BDE8F08110B5141E73F192
:10048000000408DA401C41F1000192185B411A4354
:1004900001D120F0010010BD2DE9F04D92469B46A0
:1004A00011B1B1FA81F202E0B0FA80F22032904646
:1004B000FFF79FFF04460F4640EA0A0041EA0B019E
:1004C00053465A46084313D0114653EA010019D047
:1004D000C8F140025046FFF79BFF05460E465046C6
:1004E00059464246FFF785FF084305D0012004E046
:1004F00020463946BDE8F08D0020054346EAE07607
:100500002C4337430A986305E40AA0EB0800002255
:10051000FD0A44EA47540A3002D500200146E9E7C3
:10052000010510196941DDE9084500196941BDE877
:10053000F04DA2E7064C074D06E0E06840F00103ED
:1005400094E8070098471034AC42F6D3FFF732FE28
:10055000800E0308B00E03087047FEE7014800F064
:100560002FB90000000000202DE9F047134CDDE911
:100570000B75DDE9088C4FF40036DDF834A0DDF8AA
:1005800028902660E0606161E2632361C4F818800E
:10059000C4F840C047EA0940606445EA0A6040F494
:1005A0008030E06165626563206840F00100206092
:1005B0002068C007FCD1BDE8F087000000B0024011
:1005C0007047000070B5B3F5804F05D06FF07041F3
:1005D00040F82210002070BD50F82230084C234013
:1005E000D1E9004544EA05148D688E892D0245EA5B
:1005F000064589692C430C431C4340F82240E9E737
:100600000000F0CFF0B50B6850F82350174A1540A2
:10061000D1E90124D1E9036722433E4332434E69C5
:1006200032438E693243CE6932430E6A32434E6A98
:1006300032438E6A3243CE6A3243CE6B32430E6B04
:1006400032434E6B32432A43082C01D142F0400220
:1006500040F823204A6BB2F5801F05D1096819B113
:10066000016841F4801101600020F0BD8000E0FFCE
:10067000F0B500EB820253688E8903F04044D1E963
:10068000003543EA05138D682D0245EA06452B43E4
:100690000E8A0D4D05EB065633430E7D6F0107EBB9
:1006A000066633438E693343234353600268D202A4
:1006B00007D54268098A22F4700205EB0151114303
:1006C00041600020F0BD00000000F0FF10B5040004
:1006D00002D0607910B106E0012010BD0020207129
:1006E000204600F005F801206071002010BD0000D8
:1006F00008B500680649884208D10648016841F4F7
:1007000080510160006800F48050009008BD000036
:1007100000300240303802407047000070B590F859
:100720003820012A24D0012680F83860022280F87F
:10073000392000EB0112148CD369183243EA0445C6
:100740001E4C0A2B16D0092B14D0137B45EA0363E9
:100750000029016813D0CD69A5431D43CD6103680D
:100760001168196151680A291BD0092919D01DE0A7
:10077000022070BDD36803F07F432B43E8E74D6A46
:10078000A5431D434D6203681168996151680A29A8
:1007900001D009290AD1D168026821F07F41916214
:1007A00004E0D168026821F07F41116280F839606D
:1007B000002180F83810084670BD00000F0003FFCC
:1007C0002DE9F0470446006846680568F1074FF0D8
:1007D00004084FF000074FF0010914D0E90512D5C5
:1007E000016821F480710160E06B40F00100E0637A
:1007F0002168C1F8089084F8398084F838706169FC
:1008000009B120468847B00615D5A80413D520683D
:10081000016821F400510160216820208860E06BAC
:1008200040F00200E06384F8398084F83870616930
:1008300009B120468847300715D5280513D520680B
:10084000016821F400610160216808208860E06B84
:1008500040F00400E06384F8398084F838706169FE
:1008600009B12046884770070CD568050AD520686D
:10087000016821F4806101602168C1F80880204688
:1008800000F05AF8B00713D5A80511D52068016803
:1008900021F400710160216802208860E06BE06350
:1008A00084F8399084F83870216909B12046884766
:1008B000F00612D5E80410D52068016821F48051B3
:1008C0000160216810208860E06BE06384F8399053
:1008D00084F838702046FFF71FFFBDE8F08770B539
:1008E000040004D094F83900002510B106E001207E
:1008F00070BD84F83850204600F020F8022084F8BB
:10090000390020680168626821F4403111430160B8
:100910002068416BA26821F0070111434163206800
:10092000016CE2686FF30D0111430164E56301207E
:1009300084F83900002070BD7047000008B50068D9
:100940000B49884212D10B48016841F40001016053
:100950000068002200F40000009011465A2000F0C8
:10096000ABF9BDE808405A2000F098B908BD000076
:1009700000B0024030380240F0B587B0142168461C
:10098000FFF76CFC14480168002923D1012404609E
:100990001248016841F0010101600068022600F080
:1009A000010005904FF680700327CDE90006CDE9E0
:1009B00002470C2569460495094800F015F84EF2E7
:1009C000B370CDE90006CDE90247694604950548B4
:1009D00000F00AF807B0F0BD0C00001038380240F3
:1009E00000100240000C02402DE9F84FDFF8AC91F6
:1009F000002209F1040A0AF1040B03274FF00F0C3F
:100A00000BF1040E01250B6895402B40AB4272D1CF
:100A10000C7904F00304012C01D0022C15D1866856
:100A2000540007FA04F826EA0806D1F80C8008FA00
:100A300004F848EA0608C0F808804468AC430D7919
:100A4000C5F300159540254345600C79E443A407A0
:100A500008D0C568540007FA04F6B5438E68A6406E
:100A60002E43C6600C7904F00304022C11D1D40883
:100A700000EB8406356A5407E40E0CFA04F825EA04
:100A80000805D1F8108008FA04F848EA0508C6F805
:100A900020800568540007FA04F6B5430E7906F085
:100AA0000306A6402E4306604C68E40070D53C4C1B
:100AB000256845F480452560246822F0030504F488
:100AC00080440094374C05EB0408D8F80858940784
:100AD000260F0CFA06F4A543334CA04201D10024A2
:100AE0002EE0324CA04201D1012429E0304CA0423A
:100AF00002D1022424E04BE02E4CA04201D1032479
:100B00001EE02D4CA04201D1042419E02B4CA04240
:100B100001D1052414E02A4CA04201D106240FE0A3
:100B2000284CA04201D107240AE0274CA04201D161
:100B3000082405E0254CA04201D1092400E00A2444
:100B4000B4402C43C8F80848D9F800404D464E68D8
:100B50009C43F60300D51C432C60DAF80040554650
:100B60004E689C43B60300D51C432C60DBF8004064
:100B70005D464E689C43F60200D51C432C60DEF8AF
:100B8000004075464E689C43B60200D51C432C605D
:100B9000521C102AFFF436AFBDE8F88F003C01402C
:100BA000443802400030014000000240000402408E
:100BB00000080240000C02400010024000140240F5
:100BC00000180240001C02400020024000240240A5
:100BD0000AB1816170470904FBE7000001488068A1
:100BE0007047000014000010024881680278114428
:100BF00081607047140000100B4810B5016841F483
:100C000000710160016841F480610160016841F494
:100C100080710160032000F06FF8002000F006F8FA
:100C200000F024F8002010BD003C024070B50D4DCE
:100C300004464FF47A712878B1FBF0F00A4909684C
:100C4000B1FBF0F000F053FB48B9102C07D20022A2
:100C50002146501E00F030F800206C6070BD01206D
:100C600070BD000014000010200000100A4808B5F4
:100C7000016841F480410160006800F48040009008
:100C80000548001F016841F080510160006800F0D4
:100C90008050009008BD000044380240002809DB65
:100CA00000F01F02012191404009800000F1E02086
:100CB000C0F8001170470000F0B40E4B1B68C3F37E
:100CC0000223C3F10704042C00D904241D1D072DA1
:100CD00001D2002300E0DB1E012606FA04F56D1E9A
:100CE0000D409D409E40761E164045EA0601F0BC30
:100CF00003F0E1B90CED00E0064A00F007011068CE
:100D00004FF6FF03184040EA0120034908431060F2
:100D1000704700000CED00E00000FA052DE9F843F3
:100D20001748016841F0805101600068DFF8548085
:100D300000F0805001270090C8F84070FFF74EFF88
:100D400004464FF47A75104E04E0FFF747FF001B8E
:100D5000A8420DD87068C003F7D5C8F84470FFF7F3
:100D60003DFF044607E0FFF739FF001BA84202D908
:100D70000320BDE8F88370688003F4D50020F8E70D
:100D80004038024000000E42007000402DE9F0475C
:100D90000D46040065D0DFF81491D9F80000EFB2D9
:100DA00000F00F00A84207D289F80070D9F80000BF
:100DB00000F00F00A84254D120683D4E810712D5A3
:100DC000400703D5306840F4E050306020780007D9
:100DD00003D5306840F4604030603068A16820F08E
:100DE000F000084330602078C0072DD0304960689B
:100DF0000839012812D0022813D0032811D009681D
:100E0000890700292DDA316821F00301014331609F
:100E1000FFF7E4FE804641F2883A0EE00968890354
:100E2000EFE709688901ECE7FFF7D8FEA0EB0801BE
:100E3000514502D90320BDE8F0873068616800F0B1
:100E40000C00B0EB810FEFD1D9F80010484601F04B
:100E50000F01A94207D90770006800F00F00A842EF
:100E600001D00120E7E72078400705D53068E16828
:100E700020F4E050084330602078000706D5306841
:100E8000216920F4604040EAC100306000F018F8A9
:100E90003168084AC1F30311515CC8400649086033
:100EA00006480068FFF7C2FE0020C4E7003C02408D
:100EB00008380240080C0308200000101800001039
:100EC000154810B5006810F00C01144813D0144BED
:100ED00004290FD008290ED10F4C241F216801F0DE
:100EE0003F022168490207D52068C0F38810A0FBA3
:100EF000030106E0184610BD2168C1F38811A1FB6B
:100F000000010023FFF772F92168C1F30141491C78
:100F10004900B0FBF1F010BD083802400024F40095
:100F200040787D012DE9F84F040075D02078DFF876
:100F300038A3C007AAF1040548D00AF104000168EB
:100F4000C1F38101012908D00068C0F381000228A3
:100F50000AD1DAF80000400206D52868800335D5AA
:100F600060680028E1D031E06068B0F5803F10D0C3
:100F7000B0F5A02F286810D020F4803028602868B1
:100F800020F4802028606068A0B1FFF727FE0646A5
:100F90000CE0286840F48030F4E740F480202860BA
:100FA000F7E7FFF71BFE801B642871D828688003D1
:100FB000F7D50BE0FFF712FE064604E0FFF70EFE42
:100FC000801B6428F1D828688003F7D42078DFF8E4
:100FD0009C9280074FF0000B3DD5A348001D01688F
:100FE00011F00C0F08D00068C0F3810002280AD16C
:100FF000DAF80000400206D42868800715D5E068BA
:10100000012809D111E0E068B8B10120C9F8000059
:10101000FFF7E4FD064605E022E1FFF7DFFD801B58
:101020000228C2D828688007F7D52868216920F0EF
:10103000F80040EAC10028600DE0C9F800B0FFF7F1
:10104000CDFD064604E0FFF7C9FD801B02281FD82E
:1010500028688007F7D42078000722D5824F84487B
:101060006169703771B101210160FFF7B7FD064674
:1010700004E0FFF7B3FD801B022809D83868800719
:10108000F7D50EE0C0F800B0FFF7A8FD064605E072
:1010900082E0FFF7A3FD801B02287DD83868800717
:1010A000F7D42078400765D56F484FF000083C30F2
:1010B0000068C0000BD46C483C30016841F080519E
:1010C000016000684FF0010800F080500090694F07
:1010D0003868C0050FD4386840F480703860FFF776
:1010E0007DFD064604E0FFF779FD801B022853D8FA
:1010F0003868C005F7D55C4FA0686C3701280FD061
:101100000528386810D020F001003860386820F0D9
:1011100004003860A068B0B1FFF760FD06460EE03D
:10112000386840F00100F4E740F004003860F7E769
:10113000FFF754FD811B41F28830814263D8386843
:101140008007F5D50DE0FFF749FD064606E0FFF7FD
:1011500045FD811B41F28830814254D838688007B0
:10116000F5D4B8F1000F05D03F483C30016821F0BC
:1011700080510160A069B8B33B49091D0968C1F3FA
:101180008101022946D00228584606D0C9F86000DD
:10119000FFF724FD044639E035E04F46C9F860000A
:1011A000FFF71CFD064604E0FFF718FD801B022830
:1011B00029D828688001F7D4D4E907010843A16A37
:1011C0002D4A490802EB0141626A41EA8211084353
:1011D00094F82C1040EA0161CAF80010012038662A
:1011E000FFF7FCFC044605E03CE0FFF7F7FC001BC2
:1011F000022808D828688001F7D533E0FFF7EEFC15
:10120000001B022802D90320BDE8F88F286880015E
:10121000F4D427E00128F7D0DAF80000E26900F4FE
:10122000800191421CD1226A00F03F01914217D106
:1012300047F6C071626A0140B1EB821F10D1A26A09
:101240004FF0FF3300F4403103EB5202B1EB024F99
:1012500006D194F82C1000F07060B0EB016F01D053
:101260000120D1E70020CFE70438024000004742C8
:10127000800E4742007000400000FFFF70B5154629
:101280000E46040003D094F8490010B107E0012095
:1012900070BD002084F84800204600F01AF804F1E0
:1012A00008012068FFF7AEF93146A2682068FFF711
:1012B000DFF9D4E901022946236BFFF783F9A1681E
:1012C000206850F8212042F0010240F8212000203F
:1012D00070BDFFF751BB4FF0E0210428086903D02F
:1012E00020F004000861704740F00400FAE710B5F0
:1012F000401EB0F1807F01D3012010BD4FF0E024EB
:1013000060610F21601702F0D6FE0020A061072067
:101310002061002010BDFEE770B506460948002494
:101320000188458820464D43214602F023FB02F008
:101330006FFCB1B2044801E00180641CAC42FBD3F5
:1013400070BD000070000010000008602DE9F04F33
:10135000334B2C24194698712A2589882B2645F26F
:10136000105B4FF4305E4FF448774FF0F00949F2CC
:10137000413A4FF4A07845F2103C4FF4F07258B166
:10138000A3F80080A3F80290514501D0614529D10E
:101390001C815D819E8139E0A3F80090A3F8028052
:1013A000514501D0614508D11C815D819E81614517
:1013B00031D1A3F800805A802DE0594508D1A3F817
:1013C00008E04FF4285058814FF42C50988106E0E3
:1013D000A1F5C85063381ED11C815E819D811A80A1
:1013E0005F8018E0594508D1A3F808E04FF4285071
:1013F00058814FF42C50988106E0A1F5C85063380D
:1014000004D11C815D819E811F805A80614502D17B
:101410001A80A3F80280BDE8F04F002002F0CEB998
:10142000700000102DE9F04FFE4887B0016841F0D0
:101430000201016000684FF0010900F00200059010
:101440002020CDE900090320CDE902906946F64845
:10145000FFF7CAFA4FF4FA7002F0C8FED32002F088
:10146000CBFB02F079F9F14CA08002F075F9A08075
:1014700002F072F94FF6FF7A0AEA0020A08002F02B
:101480006BF9A18849F241360843A08045F2103734
:1014900045F2105541F66318B04247D0D42002F00F
:1014A000ABFB02F059F9A08002F056F9A08002F0DF
:1014B00053F90AEA00205246A08002F04DF9A188B3
:1014C0000843A080B84231D04FF45A4002F094FB58
:1014D00002F042F9A0804FF45B4002F08DFB02F075
:1014E0003BF902EA0020A0804FF45C4002F084FB4C
:1014F00002F032F9A1880843A080B0F5004F7DD0FA
:10150000A84213D0A12002F077FB02F025F9A080B9
:1015100002F022F902EA0020A08002F01DF9A18861
:101520000843A0F5AE41A080613968D080B2B042D6
:1015300066D1CF2002F060FB002002F051FBC120F9
:1015400002F04EFB302002F04BFBED2002F054FB8A
:10155000642002F045FB032002F042FB122002F05F
:101560003FFB812002F03CFBE82002F045FB852098
:1015700002F036FB102002F033FB7A2002F030FB41
:10158000CB2002F039FB392002F02AFB2C2002F09C
:1015900027FB002002F024FB342002F021FB022074
:1015A00002F01EFBF72002F027FB202002F018FBC0
:1015B000EA2002F021FB002002F012FB002002F0E2
:1015C0000FFBC02002F018FB1B2002F009FBC1201A
:1015D00002F012FB012002F003FBC52002F00CFB1D
:1015E000302002F0FDFA302002F0FAFAC72002F0B3
:1015F00003FBB72002F0F4FA362002E0B5E0B0E0D9
:10160000B5E002F0F9FA482002F0EAFA3A2002F0D6
:10161000F3FA552002F0E4FAB12002F0EDFA0020CE
:1016200002F0DEFA1A2002F0DBFAB62002F0E4FA49
:101630000A2002F0D5FAA22002F0D2FAF22002F03B
:10164000DBFA002002F0CCFA262002F0D5FA0120C5
:1016500002F0C6FAE02002F0CFFA0F2002F0C0FA42
:101660002A2002F0BDFA282002F0BAFA082002F07F
:10167000B7FA0E2002F0B4FA082002F0B1FA5420B2
:1016800002F0AEFAA92002F0ABFA432002F0A8FA69
:101690000A2002F0A5FA0F2002F0A2FA002002F0C0
:1016A0009FFA002002F09CFA002002F099FA002034
:1016B00002F096FAE12002F09FFA002002F090FA80
:1016C000152002F08DFA172002F08AFA072002F0A6
:1016D00087FA112002F084FA062002F081FA2B200A
:1016E00002F07EFA562002F07BFA3C2002F078FAF3
:1016F000052002F075FA102002F072FA0F2002F0B5
:101700006FFA3F2002F06CFA3F2002F069FA0F20D6
:1017100002F066FA2B2002F06FFA002002F060FA65
:10172000002002F05DFA012002F05AFA3F2002F098
:1017300057FA2A2002F060FA002002F051FA002045
:1017400002F04EFA002002F04BFAEF2002F048FAC5
:10175000112002F051FA782002F048FD292001F012
:101760000DBFA4F8048001F00EBFA580FEE3B842CF
:101770007DD1ED2002F040FA012002F031FAFE2086
:1017800002F02EFAEE2002F037FADE2002F028FAFC
:10179000212002F025FAF12002F02EFA012002F0B9
:1017A0001FFADF2002F028FA102002F019FAC420F4
:1017B00002F022FA8F2002F013FAC62002F01CFA7F
:1017C000002002F00DFAE22002F00AFAE22002F014
:1017D00007FAE22002F004FABF2002F00DFAAA2074
:1017E00002F0FEF9B02002F007FA0D2002F0F8F93D
:1017F000002002F0F5F90D2002F0F2F9002002F0CD
:10180000EFF9112002F0ECF9002002F0E9F91920BB
:1018100002F0E6F9002002F0E3F9212002F0E0F9FD
:10182000002005E030380240000402407000001043
:1018300002F0D6F92D2002F0D3F9002002F0D0F901
:101840003D2002F0CDF9002002F0CAF95D2002F03F
:10185000C7F9002002F0C4F95D2002F0C1F90020B0
:1018600002F0BEF9B12002F0C7F9802000E0FDE3EC
:1018700002F0B6F9002002F0B3F98B2002F0B0F9C3
:10188000002002F0ADF9962002F0AAF9002002F043
:10189000A7F9B22002F0B0F9002002F0A1F900206F
:1018A00002F09EF9022002F09BF9002002F098F964
:1018B000032002F095F9002002F092F9B32002F023
:1018C0009BF9002002F08CF9002002F089F9002039
:1018D00002F086F9002002F083F9002002F080F97E
:1018E000002002F07DF9002002F07AF9002002F0D9
:1018F00077F9002002F074F9002002F071F900205D
:1019000002F06EF9002002F06BF9002002F068F995
:10191000002002F065F9002002F062F9002002F0D8
:101920005FF9002002F05CF9002002F059F9002074
:1019300002F056F9002002F053F9002002F050F9AD
:10194000002002F04DF9002002F04AF9002002F0D8
:1019500047F9B42002F050F98B2002F041F9002041
:1019600002F03EF9962002F03BF9002002F038F92F
:10197000A12002F035F9002002F032F9B52002F082
:101980003BF9022002F02CF9002002F029F9032093
:1019900002F026F9002002F023F9042002F020F9D9
:1019A000002002F01DF9B62002F026F9002002F016
:1019B00017F9002002F014F9B72002F01DF90020F9
:1019C00002F00EF9002002F00BF93F2002F008F9B6
:1019D000002002F005F95E2002F002F9002002F07A
:1019E000FFF8642002F0FCF8002002F0F9F88C20E7
:1019F00002F0F6F8002002F0F3F8AC2002F0F0F864
:101A0000002002F0EDF8DC2002F0EAF8002002F0FD
:101A1000E7F8702002F0E4F8002002F0E1F89020EE
:101A200002F0DEF8002002F0DBF8EB2002F0D8F83C
:101A3000002002F0D5F8DC2002F0D2F8002002F0FD
:101A4000CFF8B82002F0D8F8002002F0C9F8002042
:101A500002F0C6F8002002F0C3F8002002F0C0F83F
:101A6000002002F0BDF8002002F0BAF8002002F0D9
:101A7000B7F8002002F0B4F8BA2002F0BDF8242034
:101A800002F0AEF8002002F0ABF8002002F0A8F857
:101A9000002002F0A5F8C12002F0AEF8202002F0EC
:101AA0009FF8002002F09CF8542002F099F80020E2
:101AB00002F096F8FF2002F093F8002002F090F870
:101AC000C22002F099F80A2002F08AF8002002F001
:101AD00087F8042002F084F8002002F081F8C32087
:101AE00002F08AF83C2002F07BF8002002F078F83F
:101AF0003A2002F075F8002002F072F8392002F066
:101B00006FF8002002F06CF8372002F069F800202E
:101B100002F066F83C2002F063F8002002F060F862
:101B2000362002F05DF8002002F05AF8322002F070
:101B300057F8002002F054F82F2002F051F800204E
:101B400002F04EF82C2002F04BF8002002F048F88A
:101B5000292002F045F8002002F042F8262002F089
:101B60003FF8002002F03CF8242002F039F8002071
:101B700002F036F8242002F033F8002002F030F8AA
:101B8000232002F02DF8002002F02AF83C2002F079
:101B900027F8002002F024F8362002F021F8002077
:101BA00002F01EF8322002F01BF8002002F018F8B4
:101BB0002F2002F015F8002002F012F82C2002F07D
:101BC0000FF8002002F00CF8292002F009F800209C
:101BD00002F006F8262002F003F8002002F000F8D8
:101BE000242001F0FDFF002001F0FAFF242001F085
:101BF000F7FF002001F0F4FF232001F0F1FF0020A7
:101C000001F0EEFFC42001F0F7FF622001F0E8FFD1
:101C1000002001F0E5FF052001F0E2FF002001F0C7
:101C2000DFFF842001F0DCFF002001F0D9FFF0206D
:101C300001F0D6FF002001F0D3FF182001F0D0FF03
:101C4000002001F0CDFFA42001F0CAFF002001F028
:101C5000C7FF182001F0C4FF002001F0C1FF502091
:101C600001F0BEFF002001F0BBFF0C2001F0B8FF27
:101C7000002001F0B5FF172001F0B2FF002001F0B5
:101C8000AFFF952001F0ACFF002001F0A9FFF32089
:101C900001F0A6FF002001F0A3FFE62001F0A0FF65
:101CA000002001F09DFFC52001F0A6FF322001F0C9
:101CB00097FF002001F094FF442001F091FF0020E5
:101CC00001F08EFF652001F08BFF002001F088FFFE
:101CD000762001F085FF002001F082FF882001F0CE
:101CE0007FFF002001F07CFFC62001F085FF20204F
:101CF00001F076FF002001F073FF172001F070FF64
:101D0000002001F06DFF012001F06AFF002001F0CA
:101D100067FFC72001F070FF002001F061FF002085
:101D200001F05EFF002001F05BFF002001F058FF92
:101D3000C82001F061FF002001F052FF002001F0F7
:101D40004FFF002001F04CFF002001F049FFC920A7
:101D500001F052FF002001F043FF002001F040FF9E
:101D6000002001F03DFF002001F03AFF002001F0CB
:101D700037FF002001F034FF002001F031FF002088
:101D800001F02EFF002001F02BFF002001F028FFC2
:101D9000002001F025FF002001F022FF002001F0CB
:101DA0001FFF002001F01CFF002001F019FF0020A0
:101DB00001F016FFE02001F01FFF162001F010FFD8
:101DC000002001F00DFF1C2001F00AFF002001F0AF
:101DD00007FF212001F004FF002001F001FF362061
:101DE00001F0FEFE002001F0FBFE462001F0F8FEAF
:101DF000002001F0F5FE522001F0F2FE002001F07B
:101E0000EFFE642001F0ECFE002001F0E9FE7A20F4
:101E100001F0E6FE002001F0E3FE8B2001F0E0FE81
:101E2000002001F0DDFE992001F0DAFE002001F033
:101E3000D7FEA82001F0D4FE002001F0D1FEB92089
:101E400001F0CEFE002001F0CBFEC42001F0C8FE60
:101E5000002001F0C5FECA2001F0C2FE002001F002
:101E6000BFFED22001F0BCFE002001F0B9FED92057
:101E700001F0B6FE002001F0B3FEE02001F0B0FE5C
:101E8000002001F0ADFEF32001F0AAFE002001F0D9
:101E9000A7FEE12001F0B0FE162001F0A1FE002017
:101EA00001F09EFE1C2001F09BFE002001F098FE38
:101EB000222001F095FE002001F092FE362001F074
:101EC0008FFE002001F08CFE452001F089FE0020ED
:101ED00001F086FE522001F083FE002001F080FE1A
:101EE000642001F07DFE002001F07AFE7A2001F0EE
:101EF00077FE002001F074FE8B2001F071FE0020BF
:101F000001F06EFE992001F06BFE002001F068FEEA
:101F1000A82001F065FE002001F062FEB92001F06A
:101F20005FFE002001F05CFEC42001F059FE00209D
:101F300001F056FECA2001F053FE002001F050FED1
:101F4000D22001F04DFE002001F04AFED82001F021
:101F500047FE002001F044FEE02001F041FE002099
:101F600001F03EFEF32001F03BFE00E086E300209E
:101F700001F036FEE22001F03FFE052001F030FEC8
:101F8000002001F02DFE0B2001F02AFE002001F0C0
:101F900027FE1B2001F024FE002001F021FE34204A
:101FA00001F01EFE002001F01BFE442001F018FE8F
:101FB000002001F015FE4F2001F012FE002001F07C
:101FC0000FFE612001F00CFE002001F009FE7920D7
:101FD00001F006FE002001F003FE882001F000FE63
:101FE000002001F0FDFD972001F0FAFD002001F036
:101FF000F7FDA62001F0F4FD002001F0F1FDB7206F
:1020000001F0EEFD002001F0EBFDC22001F0E8FD43
:10201000002001F0E5FDC72001F0E2FD002001F005
:10202000DFFDD12001F0DCFD002001F0D9FDD6203C
:1020300001F0D6FD002001F0D3FDDD2001F0D0FD40
:10204000002001F0CDFDF32001F0CAFD002001F0D9
:10205000C7FDE32001F0D0FD052001F0C1FD002007
:1020600001F0BEFD0A2001F0BBFD00E004E300200A
:1020700001F0B6FD1C2001F0B3FD002001F0B0FD21
:10208000332001F0ADFD002001F0AAFD442001F055
:10209000A7FD002001F0A4FD502001F0A1FD0020CB
:1020A00001F09EFD622001F09BFD002001F098FDF3
:1020B000782001F095FD002001F092FD882001F0CC
:1020C0008FFD002001F08CFD972001F089FD00209C
:1020D00001F086FDA62001F083FD002001F080FDC7
:1020E000B72001F07DFD002001F07AFDC22001F053
:1020F00077FD002001F074FDC72001F071FD002084
:1021000001F06EFDD12001F06BFD002001F068FDB3
:10211000D52001F065FD002001F062FDDD2001F019
:102120005FFD002001F05CFDF32001F059FD00206F
:1021300001F056FDE42001F05FFD012001F050FDAB
:10214000002001F04DFD012001F04AFD002001F0CA
:1021500047FD022001F044FD002001F041FD2A204E
:1021600001F03EFD002001F03BFD3C2001F038FD78
:10217000002001F035FD4B2001F032FD002001F080
:102180002FFD5D2001F02CFD002001F029FD7420C1
:1021900001F026FD002001F023FD842001F020FD48
:1021A000002001F01DFD932001F01AFD002001F038
:1021B00017FDA22001F014FD002001F011FDB32055
:1021C00001F00EFD002001F00BFDBE2001F008FD26
:1021D000002001F005FDC42001F002FD002001F007
:1021E000FFFCCD2001F0FCFC002001F0F9FCD32025
:1021F00001F0F6FC002001F0F3FCDD2001F0F0FC22
:10220000002001F0EDFCF32001F0EAFC002001F0D9
:10221000E7FCE52001F0F0FC002001F0E1FC0020EB
:1022200001F0DEFC002001F0DBFC002001F0D8FC16
:10223000022001F0D5FC002001F0D2FC292001F0A1
:10224000CFFC002001F0CCFC3C2001F0C9FC0020B8
:1022500001F0C6FC4B2001F0C3FC002001F0C0FCE3
:102260005D2001F0BDFC002001F0BAFC742001F0FB
:10227000B7FC002001F0B4FC842001F0B1FC002088
:1022800001F0AEFC932001F0ABFC002001F0A8FCB3
:10229000A22001F0A5FC002001F0A2FCB32001F077
:1022A0009FFC002001F09CFCBE2001F099FC002066
:1022B00001F096FCC42001F093FC002001F090FC9A
:1022C000CD2001F08DFC002001F08AFCD32001F02C
:1022D00087FC002001F084FCDC2001F081FC002060
:1022E00001F07EFCF32001F07BFC002001F078FC83
:1022F000E62001F081FC112001F072FC002001F0C9
:102300006FFC342001F06CFC002001F069FC5620C9
:1023100001F066FC002001F063FC762001F060FC17
:10232000002001F05DFC772001F05AFC002001F054
:1023300057FC662001F054FC002001F051FC88207D
:1023400001F04EFC002001F04BFC992001F048FC0C
:10235000002001F045FCBB2001F042FC002001F010
:102360003FFC992001F03CFC002001F039FC662084
:1023700001F036FC002001F033FC552001F030FC68
:10238000002001F02DFC552001F02AFC002001F076
:1023900027FC452001F024FC002001F021FC432013
:1023A00001F01EFC002001F01BFC442001F018FC91
:1023B000002001F015FCE72001F01EFC322001F0A6
:1023C0000FFC002001F00CFC552001F009FC00205E
:1023D00001F006FC762001F003FC002001F000FC77
:1023E000662001F0FDFB002001F0FAFB672001F000
:1023F000F7FB002001F0F4FB672001F0F1FB002067
:1024000001F0EEFB872001F0EBFB002001F0E8FB80
:10241000992001F0E5FB002001F0E2FBBB2001F078
:10242000DFFB002001F0DCFB992001F0D9FB00204C
:1024300001F0D6FB772001F0D3FB002001F0D0FBA8
:10244000442001F0CDFB002001F0CAFB562001F032
:10245000C7FB002001F0C4FB232001F0C1FB0020DA
:1024600001F0BEFB332001F0BBFB002001F0B8FB04
:10247000452001F0B5FB002001F0B2FBE82001F09F
:10248000BBFB002001F0ACFB002001F0A9FB992070
:1024900001F0A6FB002001F0A3FB872001F0A0FBC8
:1024A000002001F09DFB882001F09AFB002001F044
:1024B00097FB772001F094FB002001F091FB662050
:1024C00001F08EFB002001F08BFB882001F088FBDF
:1024D000002001F085FBAA2001F082FB002001F022
:1024E0007FFBBB2001F07CFB002001F079FB9920F1
:1024F00001F076FB002001F073FB662001F070FB19
:10250000002001F06DFB552001F06AFB002001F076
:1025100067FB552001F064FB002001F061FB4420C3
:1025200001F05EFB002001F05BFB442001F058FB52
:10253000002001F055FB552001F052FB002001F076
:102540004FFBE92001F058FBAA2001F049FB0020D5
:1025500001F046FB002001F043FB002001F040FBAE
:10256000002001F049FBAA2001F03AFBCF2001F046
:1025700043FB002001F034FB002001F031FB002080
:1025800001F02EFB002001F02BFB002001F028FBC6
:10259000002001F025FB002001F022FB002001F0CB
:1025A0001FFB002001F01CFB002001F019FB0020A4
:1025B00001F016FB002001F013FB002001F010FBDE
:1025C000002001F00DFB002001F00AFB002001F0CB
:1025D00007FB002001F004FBF02001F00DFB0020C0
:1025E00001F0FEFA502001F0FBFA002001F0F8FAA9
:1025F000002001F0F5FA002001F0F2FAF32001F0DA
:10260000FBFA002001F0ECFAF92001F0F5FA0620BF
:1026100001F0E6FA102001F0E3FA292001F0E0FAD7
:10262000002001F0DDFA3A2001F0E6FA552001F031
:10263000D7FA112001F0E0FA642001F0D7FD29203B
:1026400001F0DAFA352001F0D7FA002001F0C8FADB
:10265000512001F0D1FAFF2001F0C2FA532001F01D
:10266000CBFA2C2001F0BCFA552001F0C5FA8220EB
:1026700001F0B6FA2C20FDE3A8427DD14FF470435F
:102680005521184601F0CEFA4FF2010BAA21584607
:1026900001F0C8FA52214FF2020001F0C3FA0821FA
:1026A0004FF2030001F0BEFA01214FF2040001F0E5
:1026B000B9FA0D214FF4304001F0B4FA0D214BF27C
:1026C000010001F0AFFA0D214BF2020001F0AAFA6D
:1026D00034214FF4364001F0A5FA34214BF2016069
:1026E00001F0A0FA34214BF2026001F09BFA0D21B7
:1026F0004FF4314001F096FA0D214BF2011001F038
:1027000091FA0D214BF2021001F08CFA34214FF4B2
:10271000374001F087FA34214BF2017001F082FA60
:1027200034214BF2027001F07DFA00214FF4324067
:1027300001F078FA00214BF2012001F073FA002138
:102740004BF2022001F06EFA24214FF4384001F0E0
:1027500069FA24214BF6010001F064FA24214BF6BA
:10276000020001F05FFA01214FF43F4001F05AFAF4
:102770000F214FF4334000E0FEE301F053FA0F2144
:102780004BF2013001F04EFA0F214BF2023001F012
:1027900049FA34214FF4394001F044FA34214BF620
:1027A000011001F03FFA34214BF6021001F03AFA21
:1027B00008214FF4354001F035FA08214BF2015061
:1027C00001F030FA08214BF2025001F02BFA0321FC
:1027D0004FF4424001F026FA24214FF43A4001F030
:1027E00021FA24214BF6012001F01CFA24214BF69A
:1027F000022001F017FA00214FF43C4001F012FAD8
:1028000078214BF6014001F00DFA00214BF6024011
:1028100001F008FA00214FF43D4001F003FA78215D
:102820004BF6015001F0FEF900214BF6025001F089
:10283000F9F900214FF43E4001F0F4F964214BF620
:10284000016001F0EFF900214FF4514001F0EAF985
:1028500033214DF2011001F0E5F900214DF2021093
:1028600001F0E0F934214DF2031001F0DBF9002111
:102870004DF2041001F0D6F93A214DF2051001F0A5
:10288000D1F900214DF2061001F0CCF94A214DF2A8
:10289000071001F0C7F900214DF2081001F0C2F94C
:1028A0005C214DF2091001F0BDF900214DF20A1032
:1028B00001F0B8F981214DF20B1001F0B3F90021BC
:1028C0004DF20C1001F0AEF9A6214DF20D1001F001
:1028D000A9F900214DF20E1001F0A4F9E5214DF205
:1028E0000F1001F09FF901214DF2101001F09AF93B
:1028F00013214DF2111001F095F901214DF2121042
:1029000001F090F954214DF2131001F08BF90121DF
:102910004DF2141001F086F982214DF2151001F0EC
:1029200081F901214DF2161001F07CF9CA214DF216
:10293000171001F077F902214DF2181001F072F929
:1029400000214DF2191001F06DF902214DF21A101B
:1029500001F068F901214DF21B1001F063F9022129
:102960004DF21C1001F05EF934214DF21D1001F002
:1029700059F902214DF21E1001F054F967214DF270
:102980001F1001F04FF902214DF2201001F04AF919
:1029900084214DF2211001F045F902214DF222105F
:1029A00001F040F9A4214DF2231001F03BF902217E
:1029B0004DF2241001F036F9B7214DF2251001F047
:1029C00031F902214DF2261001F02CF9CF214DF200
:1029D000271001F027F902214DF2281001F022F909
:1029E000DE214DF2291001F01DF902214DF22A10CD
:1029F00001F018F9F2214DF22B1001F013F9022128
:102A00004DF22C1001F00EF9FE214DF22D1001F0C7
:102A100009F903214DF22E1001F004F910214DF2B5
:102A20002F1001F0FFF803214DF2301001F0FAF8F9
:102A300033214DF2311001F0F5F803214DF232103F
:102A400001F0F0F86D214DF2331001F0EBF80021A8
:102A50004FF4524001F0E6F833214DF2012001F02D
:102A6000E1F800214DF2022001F0DCF834214DF2B2
:102A7000032001F0D7F800214DF2042001F0D2F834
:102A80003A214DF2052001F0CDF800214DF206204B
:102A900001F0C8F84A214DF2072001F0C3F80021E7
:102AA0004DF2082001F0BEF85C214DF2092001F042
:102AB000B9F800214DF20A2001F0B4F881214DF25D
:102AC0000B2001F0AFF800214DF20C2001F0AAF824
:102AD000A6214DF20D2001F0A5F800214DF20E20A7
:102AE00001F0A0F8E5214DF20F2001F09BF8012143
:102AF0004DF2102001F096F813214DF2112001F053
:102B000091F801214DF2122001F08CF854214DF280
:102B1000132001F087F801214DF2142001F082F812
:102B200082214DF2152001F07DF801214DF2162091
:102B300001F078F8CA214DF2172001F073F8022154
:102B40004DF2182001F06EF800214DF2192001F02D
:102B500069F802214DF21A2001F064F801214DF2CA
:102B60001B2001F05FF802214DF21C2001F05AF801
:102B700034214DF21D2001F055F802214DF21E20A6
:102B800001F050F867214DF21F2001F04BF80221AF
:102B90004DF2202001F046F884214DF2212001F071
:102BA00041F802214DF2222001F03CF8A4214DF21F
:102BB000232001F037F802214DF2242001F032F8F1
:102BC000B7214DF2252001F02DF802214DF22620EB
:102BD00001F028F8CF214DF2272001F023F802213F
:102BE0004DF2282001F01EF8DE214DF2292001F0DF
:102BF00019F802214DF22A2001F014F8F2214DF2C9
:102C00002B2001F00FF802214DF22C2001F00AF8E0
:102C1000FE214DF22D2001F005F803214DF22E206A
:102C200001F000F810214DF22F2000F0FBFF0321EE
:102C30004DF2302000F0F6FF33214DF2312000F04C
:102C4000F1FF03214DF2322000F0ECFF6D214DF237
:102C5000332000F0E7FF00214FF4534000F0E2FF83
:102C600033214DF2013000F0DDFF00214DF2023042
:102C700000F0D8FF34214DF2033000F0D3FF0021E3
:102C80004DF2043000F0CEFF3A214DF2053000F055
:102C9000C9FF00214DF2063000F0C4FF4A214DF279
:102CA000073000F0BFFF00214DF2083000F0BAFFFE
:102CB0005C214DF2093000F0B5FF00214DF20A30E1
:102CC00000F0B0FF81214DF20B3000F0ABFF00218E
:102CD0004DF20C3000F0A6FFA6214DF20D3000F0B1
:102CE000A1FF00214DF20E3000F09CFFE5214DF2D6
:102CF0000F3000F097FF01214DF2103000F092FFED
:102D000013214DF2113000F08DFF01214DF21230F0
:102D100000F088FF54214DF2133000F083FF0121B1
:102D20004DF2143000F07EFF82214DF2153000F09C
:102D300079FF01214DF2163000F074FFCA214DF2E7
:102D4000173000F06FFF02214DF2183000F06AFFDB
:102D500000214DF2193000F065FF02214DF21A30CA
:102D600000F060FF01214DF21B3000F05BFF0221FB
:102D70004DF21C3000F056FF34214DF21D3000F0B2
:102D800051FF02214DF21E3000F04CFF67214DF241
:102D90001F3000F047FF02214DF2203000F042FFCB
:102DA00084214DF2213000F03DFF02214DF222300E
:102DB00000F038FFA4214DF2233000F033FF022150
:102DC0004DF2243000F02EFFB7214DF2253000F0F7
:102DD00029FF02214DF2263000F024FFCF214DF2D1
:102DE000273000F01FFF02214DF2283000F01AFFBB
:102DF000DE214DF2293000F015FF02214DF22A307C
:102E000000F010FFF2214DF22B3000F00BFF0221F9
:102E10004DF22C3000F006FFFE214DF22D3000F077
:102E200001FF03214DF22E3000F0FCFE10214DF287
:102E30002F3000F0F7FE03214DF2303000F0F2FEAB
:102E400033214DF2313000F0EDFE03214DF23230EE
:102E500000F0E8FE6D214DF2333000F0E3FE00217A
:102E60004FF4544000F0DEFE33214DF2014000F0FB
:102E7000D9FE00E082E300214DF2024000F0D2FED4
:102E800034214DF2034000F0CDFE00214DF204400C
:102E900000F0C8FE3A214DF2054000F0C3FE0021CB
:102EA0004DF2064000F0BEFE4A214DF2074000F010
:102EB000B9FE00214DF2084000F0B4FE5C214DF255
:102EC000094000F0AFFE00214DF20A4000F0AAFEDA
:102ED00081214DF20B4000F0A5FE00214DF20C4087
:102EE00000F0A0FEA6214DF20D4000F09BFE002157
:102EF0004DF20E4000F096FEE5214DF20F4000F03D
:102F000091FE01214DF2104000F08CFE13214DF294
:102F1000114000F087FE01214DF2124000F082FEC8
:102F200054214DF2134000F07DFE01214DF214407A
:102F300000F078FE82214DF2154000F073FE012171
:102F40004DF2164000F06EFECA214DF2174000F01F
:102F500069FE02214DF2184000F064FE00214DF29E
:102F6000194000F05FFE02214DF21A4000F05AFEB7
:102F700001214DF21B4000E003E300F053FE02216B
:102F80004DF21C4000F04EFE34214DF21D4000F089
:102F900049FE02214DF21E4000F044FE67214DF231
:102FA0001F4000F03FFE02214DF2204000F03AFEAB
:102FB00084214DF2214000F035FE02214DF22240E5
:102FC00000F030FEA4214DF2234000F02BFE022140
:102FD0004DF2244000F026FEB7214DF2254000F0CE
:102FE00021FE02214DF2264000F01CFECF214DF2C1
:102FF000274000F017FE02214DF2284000F012FE9B
:10300000DE214DF2294000F00DFE02214DF22A4052
:1030100000F008FEF2214DF22B4000F003FE0221E9
:103020004DF22C4000F0FEFDFE214DF22D4000F04F
:10303000F9FD03214DF22E4000F0F4FD10214DF278
:103040002F4000F0EFFD03214DF2304000F0EAFD8B
:1030500033214DF2314000F0E5FD03214DF23240C5
:1030600000F0E0FD6D214DF2334000F0DBFD00216A
:103070004FF4554000F0D6FD33214DF2015000F0E1
:10308000D1FD00214DF2025000F0CCFD34214DF273
:10309000035000F0C7FD00214DF2045000F0C2FDC6
:1030A0003A214DF2055000F0BDFD00214DF20650D1
:1030B00000F0B8FD4A214DF2075000F0B3FD0021A9
:1030C0004DF2085000F0AEFD5C214DF2095000F0C9
:1030D000A9FD00214DF20A5000F0A4FD81214DF21E
:1030E0000B5000F09FFD00214DF20C5000F09AFDB6
:1030F000A6214DF20D5000F095FD00214DF20E502D
:1031000000F090FDE5214DF20F5000F08BFD012104
:103110004DF2105000F086FD13214DF2115000F0D9
:1031200081FD01214DF2125000F07CFD54214DF241
:10313000135000F077FD01214DF2145000F072FDA4
:1031400082214DF2155000F06DFD01214DF2165017
:1031500000F068FDCA214DF2175000F063FD022116
:103160004DF2185000F05EFD00214DF2195000F0B4
:1031700059FD02214DF21A5000F054FD01214DF28B
:103180001B5000F04FFD02214DF21C5000F04AFD93
:1031900034214DF21D5000F045FD02214DF21E502C
:1031A00000F040FD67214DF21F5000F03BFD022171
:1031B0004DF2205000F036FD84214DF2215000F0F8
:1031C00031FD02214DF2225000F02CFDA4214DF2E0
:1031D000235000F027FD02214DF2245000F022FD83
:1031E000B7214DF2255000F01DFD02214DF2265071
:1031F00000F018FDCF214DF2275000F013FD022101
:103200004DF2285000F00EFDDE214DF2295000F065
:1032100009FD02214DF22A5000F004FDF2214DF289
:103220002B5000F0FFFC02214DF22C5000F0FAFC74
:10323000FE214DF22D5000F0F5FC03214DF22E50F1
:1032400000F0F0FC10214DF22F5000F0EBFC0321B8
:103250004DF2305000F0E6FC33214DF2315000F0D9
:10326000E1FC03214DF2325000F0DCFC6D214DF207
:10327000335000F0D7FC00214FF4564000F0D2FC50
:1032800033214DF2016000F0CDFC00214DF20260CF
:1032900000F0C8FC34214DF2036000F0C3FC0021B3
:1032A0004DF2046000F0BEFC3A214DF2056000F0E2
:1032B000B9FC00214DF2066000F0B4FC4A214DF249
:1032C000076000F0AFFC00214DF2086000F0AAFC9E
:1032D0005C214DF2096000F0A5FC00214DF20A606E
:1032E00000F0A0FC81214DF20B6000F09BFC00215E
:1032F0004DF20C6000F096FCA6214DF20D6000F03E
:1033000091FC00214DF20E6000F08CFCE5214DF2A5
:103310000F6000F087FC01214DF2106000F082FC8C
:1033200013214DF2116000F07DFC01214DF212607D
:1033300000F078FC54214DF2136000F073FC012181
:103340004DF2146000F06EFC82214DF2156000F029
:1033500069FC01214DF2166000F064FCCA214DF2B7
:10336000176000F05FFC02214DF2186000F05AFC7B
:1033700000214DF2196000F055FC02214DF21A6057
:1033800000F050FC01214DF21B6000F04BFC0221CB
:103390004DF21C6000F046FC34214DF21D6000F03F
:1033A00041FC02214DF21E6000F03CFC67214DF211
:1033B0001F6000F037FC02214DF2206000F032FC6B
:1033C00084214DF2216000F02DFC02214DF222609B
:1033D00000F028FCA4214DF2236000F023FC022120
:1033E0004DF2246000F01EFCB7214DF2256000F084
:1033F00019FC02214DF2266000F014FCCF214DF2A1
:10340000276000F00FFC02214DF2286000F00AFC5A
:10341000DE214DF2296000F005FC02214DF22A6008
:1034200000F000FCF2214DF22B6000F0FBFB0221CA
:103430004DF22C6000F0F6FBFE214DF22D6000F005
:10344000F1FB03214DF22E6000F0ECFB10214DF258
:103450002F6000F0E7FB03214DF2306000F0E2FB4B
:1034600033214DF2316000F0DDFB03214DF232607B
:1034700000F0D8FB6D214DF2336000F0D3FB5521F5
:10348000184600F0CFFBAA21584600F0CBFB522192
:103490004FF2020000F0C6FB08214FF2030000F0DB
:1034A000C1FB00214FF2040000F0BCFBCC214FF423
:1034B000314000F0B7FB00214BF2011000F0B2FBED
:1034C00005214FF4364000F0ADFB70214FF437403A
:1034D00000F0A8FB70214BF2017000F0A3FB01216A
:1034E0004FF4384000F09EFB03214BF6010000F042
:1034F00099FB03214BF6020000F094FB03214BF6ED
:10350000030000F08FFB02214FF43C4000F08AFBE7
:1035100000214BF6014000F085FB00214BF60240F4
:1035200000F080FBD0214FF4494000F07BFB0221EA
:103530004CF6011000F076FB50214CF6021000F022
:1035400071FB50214CF6031000F06CFB50214CF63F
:10355000041000F067FB00214FF4545000F062FBB0
:1035600055214FF4685000F05DFB4FF4885000F097
:1035700043FB782000F048FE4FF4245000F03CFB61
:10358000B9E04045FCD1E22000F036FB1D2000F000
:1035900027FB022000F024FB042000F021FB642024
:1035A00000F032FEE02000F027FB012000F018FBC5
:1035B0000A2000F01BFEE02000F01EFB032000F0BC
:1035C0000FFB0C2000F012FE012000F015FB0A207A
:1035D00000F00CFEE62000F00FFB2F2000F000FBB7
:1035E000FF2000F0FDFAFF2000F0FAFAB02000F012
:1035F00003FB202000F0F4FA002000F0F1FA032091
:1036000000F0EEFA40F21F3000F0EAFA012000F07C
:10361000E7FA40F2DF1000F0E3FA002000F0E0FAF1
:10362000B42000F0E9FA042000F0DAFA40F21F407A
:1036300000F0D6FA002000F0D3FA2E2000F0D0FAE5
:10364000002000F0CDFA002000F0CAFA002000F0BF
:10365000C7FA002000F0C4FAB62000F0CDFA02202C
:1036600000F0BEFA4FF4037000F0BAFA002000F048
:10367000B7FA172000F0B4FA152000F0B1FA0020D4
:1036800000F0AEFA002000F0ABFAF02000F0B4FA3F
:10369000032000F0A5FA292000F0AEFAD02000F0B7
:1036A000ABFA002000F09CFABE2000F0A5FA05203D
:1036B00000F096FAFE2000F093FA012000F090FA54
:1036C000002000F08DFA002000F08AFA002000F0BF
:1036D00087FAB82000F090FA032000F081FA012068
:1036E00000F07EFABA2000F087FA012000F078FAA4
:1036F000642000F03BF8A088B04205D0B84203D067
:10370000A84201D0404519D14FF02040D0F8041113
:1037100021F00F01C0F80411D0F8041121F47061F8
:10372000C0F80411D0F8041141F00401C0F80411EC
:10373000D0F8041141F48061C0F804110020FDF7B5
:1037400005FE0449C1F894925046FDF7E5FD07B027
:10375000BDE8F08F00804042034808B50088ADF80E
:103760000000BDF8000008BD0000086010B502466A
:10377000BE2000F041FA052000F032FA1046FCF7B6
:1037800012FE9FED0C1B53EC112BFCF79AFDFCF77E
:1037900017FE80B200F024FA012000F021FAFF2089
:1037A00000F01EFA002000F01BFABDE810400020D7
:1037B00000F016BA6666666666660440F0B56C4D43
:1037C00000232946AA79898841F66314012A01D089
:1037D0001AB11BE0A14202D118E0A14216D108287B
:1037E00014D2DFE800F00406080A0C0E10120620BE
:1037F0000CE007200AE0042008E0052006E0012094
:1038000004E0002002E0032000E00220A1F51347BD
:1038100045F2103245F21056413F05D0914203D097
:10382000B14201D0A14277D1082812D2DFE800F0DE
:10383000110406080A0C0E1080230AE0402308E059
:10384000C02306E0202304E0602302E0A02300E080
:10385000E023B14202D14FF4585000E036209142AB
:1038600005D0B14203D0A14201D043F0080319466C
:1038700000F0D8F9AA88A2420AD098062888698858
:1038800002D5884202D303E0884201D929806880AA
:103890006889B24241D100F0AFF9002000F0A0F9F0
:1038A0006889401C80B200F0A7F9002000F098F968
:1038B0006889801C80B200F09FF92888401EC0F300
:1038C0000F2000F08DF96889C01C80B200F094F9D7
:1038D0002878401EC0B200F083F9A88900F08CF966
:1038E000002000F07DF9A889401C80B200F084F926
:1038F000002000F075F9A889801C80B200F07CF9E6
:103900006888401EC0F30F2000F06AF9A889C01C27
:1039100080B200F071F922E028E000F06DF900209B
:1039200000F05EF9002000F05BF92888401EC0F32B
:103930000F2000F055F92878401EC0B200F050F971
:10394000A88900F059F9002000F04AF9002000F0A1
:1039500047F96888401EC0F30F2000F041F9A878AD
:10396000BDE8F040401EC0B200F03AB9F0BD000022
:1039700070000010F0B53F4D0C460246060AA988BB
:103980002846270A4089A1F51343413B28D0A1F5D9
:10399000A643103B24D0A1F5C853633B2FD0A1F51B
:1039A000AA43103B64D100F027F9304600F018F923
:1039B0006889401C80B200F01FF9D0B200F010F905
:1039C000A88900F019F9384600F00AF9A889401CC6
:1039D00080B200F011F9E0B2BDE8F04000F000B9AB
:1039E00000F00AF9304600F0FBF8D0B200F0F8F829
:1039F000A88900F001F9384600F0F2F8EBE7A97960
:103A000029B300F0F9F8304600F0EAF8D0B200F03F
:103A1000E7F82888401EC0F30F2000F0E1F828786E
:103A2000401EC0B200F0DCF8A88900F0E5F8384686
:103A300000F0D6F8E0B200F0D3F86888401EC0F37A
:103A40000F2000F0CDF8A878401EC0B2C4E7298846
:103A5000891A491E8AB200F0CFF8002000F0C0F8A1
:103A6000002000F0BDF8100A00F0BAF8D0B2D9E793
:103A7000F0BD0000700000102DE9FC4F0D4604461B
:103A800019441044DFF85491401E1FFA80F8491E73
:103A9000B9F80430C1F307200190280A0090A0185B
:103AA000401EC0F3072B4846A3F5134640898FB24A
:103AB0004FEA142A413E0BD0A3F5A646103E07D08C
:103AC00099F8066041F6631C012E1CD163451AD19A
:103AD0004A4600F091F8504600F082F8E0B200F05B
:103AE0007FF8584600F07CF808F0FF0000F078F806
:103AF000908900F081F8009800F072F8E8B200F0C8
:103B00006FF8019822E04E46634522D133888FB288
:103B10009B1A1B1B9CB200F06FF8200A00F060F8A3
:103B2000E0B200F05DF82244521EC2F30F2000F014
:103B300057F8D0B200F054F8B08900F05DF8009862
:103B400000F04EF8E8B200F04BF8380A00F048F800
:103B50003CE0A3F5AA4110393DD100F04DF85046A4
:103B600000F03EF87089401C80B200F045F8E0B2E9
:103B700000F036F87089801C80B200F03DF858469D
:103B800000F02EF87089C01C80B200F035F808F003
:103B9000FF0000F025F8B08900F02EF8009800F042
:103BA0001FF8B089401C80B200F026F8E8B200F09F
:103BB00017F8B089801C80B200F01EF8019800F060
:103BC0000FF8B089C01C80B200F016F8F8B2BDE85A
:103BD000FC4F00F005B8BDE8FC8F0000700000103D
:103BE00001B5BDF80000ADF80000BDF800000149C6
:103BF000088008BD0000086001B5BDF80000ADF800
:103C00000000BDF800000149088008BDFEFF076004
:103C100002480349008908807047000070000010C6
:103C2000FEFF0760024A1080901C01807047000070
:103C3000FEFF07602DE9F041984615460C46064602
:103C4000069FFFF719FFFFF7E3FF0B4A711904EB1B
:103C500008030DE0304607E004FB050C401C37F874
:103C60001CC0A2F800C080B28142F5D8641CA4B286
:103C7000A342EFD8BDE8F081000008600E4810B5FF
:103C80000C49016000210222C0E90112C160C0E9B3
:103C90000A1201634163FCF722FE08B172B6FEE727
:103CA00001210548FCF73AFD002801D072B6FEE775
:103CB00010BD000000B002400000002000B58FB031
:103CC0001C2108A8FCF7CAFA1C2101A8FCF7C6FAB7
:103CD0001A484FF02041102201601949416000212B
:103CE0008160C160C0E904128161C1611302016297
:103CF000C0E909139302C0E90B1341638163C163F7
:103D000041640F2046230890CDE909030DF12C0CE6
:103D100011238CE80E000DF10C0C01900E91029015
:103D20008CE80F00079101AA08A90448FDF7A6FA3C
:103D3000002801D072B6FEE70FB000BD40000020A1
:103D4000040100A02DE9F04387B014216846FCF778
:103D500085FA46480024016841F4807101600168D9
:103D600001F480710591016841F0800101600168F2
:103D700001F080010591016841F0010101600168D5
:103D800001F001010591016841F010010160016835
:103D900001F010010591016841F00801016001681E
:103DA00001F008010591016841F0400101600168DE
:103DB00001F040010591016841F0020101600068D5
:103DC000012200F002002A4E1502059029463046D5
:103DD000FCF7FEFE274F002240213846FCF7F8FE94
:103DE000DFF89480002208214046FCF7F1FEDFF85E
:103DF0008C90002220214846FCF7EAFE0095012520
:103E0000CDE90154694630460394FCF7EDFD1020DE
:103E1000CDE9000469461A480294FCF7E5FD40200C
:103E20000326CDE90005CDE9024669463846FCF790
:103E3000DBFD8020CDE90004694638460294FCF79A
:103E4000D3FD0820CDE90005CDE90246694640468C
:103E5000FCF7CAFD2020CDE90005CDE90246694600
:103E60004846FCF7C1FD07B0BDE8F083303802409A
:103E700000200240001C02400018024000040240E2
:103E800000000240FEE7FEE770477047FCF7ACBE5B
:103E900030B593B030216846FCF7E0F914210CA846
:103EA000FCF7DCF920480025016841F080510160F1
:103EB000006800F0805011901C48016841F44041B6
:103EC00001600068022400F440401190012000903D
:103ED000000401908001CDE90640192008904FF4BC
:103EE000B470CDE9090404200B906846FDF71AF878
:103EF00008B172B6FEE7FCF711FF08B172B6FEE733
:103F00000CA90F2081E831004FF4A0500F904FF41E
:103F10008050109005210CA8FCF738FF002801D034
:103F200072B6FEE713B030BD40380240007000406A
:103F30000248016841F470010160704788ED00E0BB
:103F4000FEE7000010B500F10C010B4641600021B6
:103F5000017241720749016000F120016022184698
:103F600000F020F8602320220349143000F0B3F859
:103F7000203810BD200C0308694000080549064A96
:103F800001604FF08061C2F88011BFF34F8FBFF323
:103F90006F8F7047200C030808E000E070477047FF
:103FA00070470000034B0360C0E901120021C160AB
:103FB00001617047580D030870B5244EDDE90445D2
:103FC00040C00EC0002140F8101900F11C024161F0
:103FD00081618183C183018441848184C18401859D
:103FE0009173C162018640F8381F012341608160EE
:103FF000C16001744374817440F8141F144A8180B5
:10400000C1800181418100F8183F41708170C37007
:10401000017141718171C1710172C160417481741A
:10402000C3740375643810600A4AAC4214800A4AAB
:1040300015800A4A11700A490C800A490D8001D284
:10404000012100E0002180F8341070BD7C0D0308D0
:104050005C00001052000010540000104C000010D2
:1040600056000010580000100022826170470000C6
:104070000F49016000218160C1600161416181617E
:10408000C161016241628162C16201634163816316
:10409000C163016441648164C164016541658165F6
:1040A000C165016641668166C16601674167704707
:1040B000380E030870470907090E002804DB00F1D9
:1040C000E02080F80014704700F00F0000F1E020BD
:1040D00080F8141D70472DE9F0411C4617460E006C
:1040E000804607D0054602E02846B0473D442046BA
:1040F000641EF9D24046BDE8F08102E008C8121FF4
:1041000008C1002AFAD170477047002001E001C1C0
:10411000121F002AFBD1704705484FF0000CA0F891
:1041200000C0A0F802C0A0F804C0A0F806C0704704
:10413000440000107CB5194819491A4A01601A490F
:10414000FCF7A8F81948FFF7FDFE164A1849FCF7D6
:10415000A1F81848FFF78CFF124A1749FCF79AF8A4
:104160000E481649001D0F4A01601549FCF792F8E8
:1041700010484FF4A074F02578300C490D4A074BD5
:10418000CDE90045FFF718FF0E49016002B0054A6E
:10419000BDE870400C49FCF77DB800002800001015
:1041A0002C0D0308000000089F3F0008800000104D
:1041B0007D3F0008A00C0010B5400008440D030826
:1041C000A13F0008700C03089D3F00080148002132
:1041D000016070476000001010B504460420FDF730
:1041E0007AF80148046010BD0000001070B5054663
:1041F00000244FF47A7603E0304600F005F8641CA2
:10420000AC42F9D370BD000070B54FF0E02500213D
:104210006C69094AAB6912685043AA699A42FCD09A
:1042200002D2A3EB020302E0A4EB020633441944DA
:1042300013468142F1D370BD0000001010B5002874
:1042400021D0114B0022001F196803E0814203D8DE
:104250000A4649680029F9D152B11368841A9C4270
:1042600004D1006818441060104602E0506000E07D
:10427000186039B102680B1A934203D10B681A44D3
:1042800002604968416010BD6800001086B0FCF70C
:10429000B3FCFFF7FDFDB420FFF79EFFFFF752FDD3
:1042A000FFF7ECFC1949184808600846FCF70EFABD
:1042B00008B172B6FEE7FFF701FDFDF7B3F8002580
:1042C0000226DFF84C90BE274FF0F008002400953E
:1042D000CDE904640397CDE9015800230C4A0D4948
:1042E0000D48FCF741F90021BE23F0220846CDF825
:1042F0000090FFF79FFC0A20FFF778FF641CE4B2F0
:10430000FF2CE4D3E2E7000000300240040000107C
:1043100090000020C8A7010888430008F0B50B30C2
:10432000154D20F007010024144A0FE003688B426A
:104330000BD38B4205D95E1A43184768C3E900675F
:1043400000E04368136002C004E0021D106800280A
:10435000ECD12046002802D1286808B10020F0BD29
:10436000064A07481060074A121A22F00702C0E9FD
:10437000002401202860D7E76C00001068000010BE
:104380009C0D0010980F0010D5F68FD58EDD8CE5B2
:104390008CEDABEDCCF5CCF5ADF5ACF5ACF5ACF505
:1043A000ACF5ACF5ACF5ACF5ACFDACFDACFDACFDE5
:1043B000ADFDADFDADFD8DFDACFD8CF58CF58CF549
:1043C0008CF58CF58CF58CF56CF58CF58BF56BED2F
:1043D0006BED6BED6CED4CE54CE5EBD4ABCC8BC4ED
:1043E0006BBC4ABC4ABC2AB409B4E8ABA9ABA9A3CC
:1043F000899B6993298B09830983E97AA872886A62
:10440000686A686A686A886A686A265A065A065A32
:10441000065A265A065AC551E551E549E549C549A6
:10442000C641A641A6398639A531A53185318531E8
:1044300085316531653165316531653165316531AC
:10444000853185318531853185316531653165311C
:104450006531653165316531653164318539A54135
:10446000C641E64926524652465A6662866AA66A9E
:10447000A772C77AE77A077B27834883688B898B83
:104480008993AA93AA9BAA9BAA9BAA9BAA9BAA9B35
:10449000AA9BAA9BAA9BAA9BAA9B8A938A938A936C
:1044A00089938993699328832883088328832883A1
:1044B00008830883E97A0983097B0983E97AA8726A
:1044C000886A886A886A876AA86A666246626662DB
:1044D000676267624662265A265A265A265A265A22
:1044E000265A265A265A265A265A255A255A255ACF
:1044F000255A255A255A255A255A26624662466269
:1045000026624662676A876A886A886A876A876AF3
:10451000A772E87A087B087B287B077B277B477B91
:10452000487B487B487B487B49836A8B8B8B6A8BB3
:104530006B8B6B8B6B8B4B8B4B834B834B836B836B
:104540004B832A7B0973C96AE96AC862C862885AC0
:10455000685A68524752274AE641A6398531A6393A
:10456000A631A631A631A63173EE4DCD2CD52BDD6B
:104570002AE54AE56AE54AE54AE54AE54AED49EDB4
:1045800049ED69ED6AED6AED4AED4AED4AED4AED15
:104590004AED4AED2AED2AED4AED4AED2AED29EDE4
:1045A0002AED2AED2AED2AE509E509E509E5E8DC29
:1045B000E9DCE9DCC9DCC9D4C9D469C428BC08B4C5
:1045C000C8ABA7AB87A366A3469B259BE592C68A8B
:1045D000A682657A4572266AE561C45984516349A9
:1045E000434143414441434123410239E138E130F1
:1045F000E230E130E130A0288028A0288028802007
:104600008120811861186110611061104010401004
:10461000200820082008200820082008200820085A
:10462000200820082008200820082008200820084A
:1046300020082008200820082008200820106010EA
:104640008018C120E22802312139213941418249B3
:10465000A251C251E359E2592462646A856AA67282
:10466000C67AE77AE782E782E782E782E682E78234
:10467000E782E782E782C67AC67AA67AA67AA67A1F
:10468000A67AA67A8672456A246A246A246224621B
:104690000462E461E459E459E559E559C459845187
:1046A00063496349634963496349224101392139B7
:1046B00021392139213901310131E130E130E13055
:1046C000E130E130E1300131E130E130E130E13041
:1046D000E130E130E138E13801390139224122414C
:1046E00022412241424163496349834983496349E5
:1046F0008351C359E359E359035A235A235A446255
:1047000064626462446265624562866AA772877207
:1047100087728872676A476A476A47624762466279
:104720004662265A0652E551C549C441A44184391E
:10473000633943310329E220A1188110411061102F
:10474000610861086108610851EE0CCD0AD509DDE8
:1047500008E528E528E528E528E528E528ED47EDE2
:1047600047ED47F567ED48ED68F568F548F548F51C
:1047700049F549F548ED48ED28ED27ED27ED27E50A
:1047800007E507E507E508E508E508E5E8E4C7DC2F
:10479000A7DCA7DCA7DCA8D4A8CC67C427BCE7B3F8
:1047A000A6AB86A366A3459B46A3259BE592C58A37
:1047B0008582657A2572056AC561C4598451634949
:1047C0004349444944496449434122410241023931
:1047D00002390239E138C130A028A0288028802879
:1047E000812081206118611861186110401020102B
:1047F0002008200820082008200820082008200879
:104800002008200820082008200820082008200868
:1048100000080008000800080008000820084010F0
:104820008018A120E1280131213921392141624933
:10483000A251C359E359E35903622362646A857242
:10484000A572C67AC682C67AC682C682C682C68269
:10485000C682C682A67AA67A857A857265726572E4
:10486000657265724472246A246A046A046A046286
:104870000462E461C459C459C459C459A459635168
:10488000434963496349624942490139E138013981
:104890000139013901390139013901310131013160
:1048A000E138E1380139013901390139013901397A
:1048B000E1380139013901390139214122414241AF
:1048C0002241224142414249634983498349834904
:1048D000A351C359E359E359C251C259E259236262
:1048E0002362446244624462656A866AA772A77260
:1048F00087728772676A476A4762466246624662A3
:10490000265A255AE551E551C449C441A441843988
:10491000633923310229C220A118611041104108D6
:10492000410840082000410831EEEBCC0ADD09E5E2
:1049300028ED48ED48ED47ED48ED47ED47F567F5C3
:1049400066FD66FD87F587F567F567F567F567F539
:1049500068F547F547F547F547F547ED46ED26ED90
:1049600027ED27ED27ED27ED07E507E5E7E4C6E4AA
:10497000A6DCA6DCA6DC86D487D467C447C407BC03
:10498000C6AB85AB65AB45A3059BE59AC592858A09
:104990006582457A2572056AA46184596351434949
:1049A000434943494449444943492341234123411D
:1049B00002390239E138C138A130A030A030802856
:1049C00061286120611841186118411820102010D9
:1049D00000080008000820082008200820082008F7
:1049E00020080008200820082008200800080008E7
:1049F000000800080008000800080008200840100F
:104A000060188018C120E128E03000392141614957
:104A10008251C259E259E2612362436A647285722B
:104A2000A57AC682E682C682C682C682E682E68A07
:104A3000E68AC682C682A682A57A857A657A657A72
:104A4000657A65724572246AE369C361C361C361B3
:104A5000A361A3598359A359A359A4598351424926
:104A600021492249224921412141E038C038E0381A
:104A7000C030E030E038E030E030E030E030E038C6
:104A8000E038E038E138E038E138E038E138E03863
:104A9000E138E038E1380139E138014101410141B3
:104AA0000141014101412141424942496251625162
:104AB0008251A359C259C259C259C25903624462B0
:104AC000646A646A646A656A456A656A666A666A8F
:104AD000466A466A466A46620562055A055AE559BB
:104AE000E451C451A449A44983418341633942310B
:104AF00022310229C120A118A118611040084008E4
:104B00004008200000002000F0EDCBCCE9DC08E5F7
:104B100008ED27F547F547F547F547F546FD46FD0E
:104B200065FD65FD66FD66FD66FD67FD67F547F59C
:104B300047F547F547F546F546F546F526F526EDE2
:104B400026ED26ED06ED06ED06ED07EDE6E4C6E4FE
:104B5000A6E4A6DC86DC66D466CC46C426C4E6BBE6
:104B6000A5B385AB65A324A305A3E59AC592A59239
:104B7000858A6582257A0572A461A45963594351D7
:104B8000435164516451645143514349434943493A
:104B9000224102410241E138E140C138A138A1304F
:104BA00081286128412041204120411840182010CF
:104BB00020100008000820082008200820082008ED
:104BC0002008200800080008000800080008000865
:104BD00000080008000800080010201020104018ED
:104BE0008018A020C120E028E0300139414161490E
:104BF0008251C259E3610362236A436A6472847218
:104C0000847AA582C582C582A582C582C582C682F4
:104C1000C682C682A582857A857A657A657A657A42
:104C2000457244722472036AE369E361C361A3615C
:104C3000A361A3598359A359A359835963512249A5
:104C400001492149214901412141E038E038E0385A
:104C5000E038E038E038E038E038E038E038E03894
:104C6000E038E0380139003901410141014100419A
:104C700001410041E1400141014101410141014146
:104C80000141014121492149424962516251825108
:104C90008259A259A259A259A159A159E259236294
:104CA000446A446A446A446A656A656A666A466A2E
:104CB000466A466A466A466A26622562055AE45989
:104CC000E451C451A449A34983418341633942312A
:104CD00022310229E220C220A118611040084008B8
:104CE0004008200000002000F0F5CBD4C9DCE8EC3F
:104CF00008F527F527FD27F547F547FD46FD46FD55
:104D000045FD65FD65FD65FD66FD67FD67FD67FDAC
:104D100047FD47FD47FD47F526F526F526F526F51F
:104D200026F506ED06ED06ED06ED07EDE7ECC6EC23
:104D3000C6E4A6E486DC86D466D446CC46C406BC6B
:104D4000A5B385AB64AB24A3E49AC49AA5928592DB
:104D5000658A45820572E471C4698461635943516F
:104D600043514351445143514351434943492349DA
:104D70000241E140E140C140C138C138A138813031
:104D800060304128412021202020201820182010A8
:104D9000001000080008000820082008000800088B
:104DA00000080008000800080008000800080008C3
:104DB0000008000800080008000800082010401043
:104DC00080188018A020C028E03000394141624995
:104DD0008251A259C2610362236A436A6472847277
:104DE000847AC582C582C582C58AC58AC68AE68A92
:104DF000C68AC68AA582A582857A657A657A657A29
:104E0000457A24720472E369E369C361A36182593C
:104E1000825962596251625962516251425121492B
:104E20000041004100410041E040E038E038E03816
:104E3000E038E038E038E038E038E038E038E038B2
:104E4000E038E038E038E04000410041E040E04038
:104E5000E040E040E040E0400141E140E140E1402D
:104E6000E1400141014921492149424962518251B0
:104E70008259A259A259A259A259C259E2590362B0
:104E8000436A446A446A446A456A456A456A456AAF
:104E9000466A466A466A256225620562045AE451FA
:104EA000C451A35183498349834162394239223134
:104EB0000229E228C120C118811861104008400869
:104EC0002000000000002000F0F5CBD4EAE4E9EC7B
:104ED00008F527FD27FD27FD47FD47FD46FD45FD5C
:104EE00045FD65FD65FD66FD47FD47FD47FD47FD49
:104EF00047FD47FD27FD27F527F527F526F527F57B
:104F000027F507F507EDE7ECE7ECE7ECC6ECA6E4E0
:104F1000A6E486E466DC66D467D446CC26C4E6BB49
:104F2000A5B385AB45AB04A3E5A2E59AC59A8592E6
:104F3000658A4582057AE571A4698461635943599C
:104F400043594351435143516351435143492249CA
:104F500002410241E140C140C140A138A13880383E
:104F6000603040284128412040202020201820186F
:104F700020102008200820082008200820082008E9
:104F80002008200820102010000800080008001049
:104F90000010001000100010001000102010401829
:104FA0006018A020C020C028E030013921416249AA
:104FB0008251A259E3610362036A436A6472847294
:104FC000847AA582C582C582C582C58AC68AC68AF8
:104FD000C68AA582A5828582857A657A657A657A90
:104FE00045720472046AE369C361C361A3618259B3
:104FF00062594251215121514151425121490141AE
:10500000E04000410041E040E040C038E038E03896
:10501000E038C038E038E038E038E038E0380039CF
:10502000E04000410041004101410141E140E040D8
:10503000E040E040E140E1400141E140E140E14049
:10504000E1480149014901492149415162518259CF
:105050008259A259A259A259A259C259C2590362EE
:10506000036223622362246A246A256A256A256A08
:10507000456A2562256205620562045AE459C351F6
:10508000A351A349834983496241623942390131BD
:105090000129E128C120A1188118601020082008EA
:1050A0002000000000002000F0F5CBD4C9DCE8ECC3
:1050B00007F507FD27FD27FD47FD47FD46FD45FD9B
:1050C00045FD45FD65FD65FD66FD47FD47FD47FD69
:1050D00047FD47FD47FD27FD27F526F526F526F573
:1050E00026F506F507EDE7EC07ED07EDE7ECC7EC75
:1050F000A7E487E487DC67DC67D446CC26C4E6BB3C
:10510000A6B386B345AB05A3E5A2C49AA592658A6A
:10511000458A2582E479E471A4698361635943591E
:105120006359645964594351635143514349224976
:105130000241E140E140C140A040A03880388038C1
:10514000603040284028202041204020201820188E
:105150002010000820082008200820082008200827
:10516000200820082010001000100010001000106F
:105170000010001000100010201000102010401827
:1051800060188020C020C028E130013922416249E6
:105190008351A359E361E361036A446A64728472D0
:1051A000A57AA582C582A582C682C682C682C68A23
:1051B000C68AC682A682867A867A657A45724572E2
:1051C0002572046AE469E469C361A3618359835960
:1051D0006251425121492149014921492149014155
:1051E000E040E040E040E040E040E038E038E038D7
:1051F000C038C038E038E038E038E038E038E0382F
:10520000E040E040E040E0400141E140E140E0407A
:10521000E040E040E040E140E140E140E140E14881
:10522000E1480149014901492149415162518251F5
:105230008259A259A259C359A259C259C259E35914
:105240000362036203620462246A246204622562C8
:105250002562256225622562045AE459C351A3518F
:10526000A3518249624962414239423921310131B7
:10527000E128C120A1208118611040082008000009
:1052800000000000000020000FF6CACCE9DCE8E4D2
:1052900007F527FD27FD46FD47FD46FD46FD45FD7B
:1052A00065FD65FD65FD65FD66FD66FD66FD46FD0A
:1052B00047FD47FD46F526F526F546F526F525F585
:1052C00006EDE6ECE6ECE6ECE7ECE7ECC7ECA7E491
:1052D00087E487E467DC66D446D446CC26C4C6BBE4
:1052E00085B365AB45AB05A3E59AC59A8592658AFA
:1052F00045822582E479E471A469A46163616359FC
:10530000635943516459645963516351435143494B
:10531000224902410141E140E140C038A0388038D3
:105320008130402820284020402040204020201864
:10533000201020082008200840082000200820080D
:1053400020082008001000100010001000100010AD
:1053500000100010001000100010201040186018FD
:105360008020A020C128E128E13002394241634970
:105370008351C459E4610462246A446A6572857287
:10538000A57AA57AA582A682A682A682C682C682B0
:10539000C782C682A682867A867A6672467245720D
:1053A000256A056AE461E461C459A35983598351AC
:1053B0006251224901410141014101410141E14064
:1053C000E140E140E038E038E038E038E038C0382B
:1053D000E038E038E038E038E038E038E0380039EC
:1053E000E138E03801410141014101410141014100
:1053F0000141014101410141E040E140E140E14022
:10540000E040E1400149214922494249425162516B
:1054100082518251A351A251A251A251C259C359E2
:10542000E359035A0362046224620462246225621F
:1054300005620562055A055AE459C451C351A35186
:105440008349824962494241423921390131E12887
:10545000C128A120811881186010200800000000D8
:105460000000000000002000EFEDC9CCE9DCE7E41B
:1054700007ED27F527F547F547F546FD46FD45FDC0
:1054800065FD65FD65FD86FD65FD66FD65FD66FDE9
:1054900066FD66FD65F545F545F545F525F505ED32
:1054A000E4ECC4E4A5E4A5E4C5E4A6E486DC66DC9B
:1054B00066DC46D426D425CC25CC25C4E5BBA5B3D3
:1054C00065AB45AB24A3049BE49AC5928592658A9B
:1054D0004582257A047AE471C469A36183596359CA
:1054E0006359635964596459845984598451635187
:1054F000434943492249224922490149E140E140C7
:10550000A1388130612841284128402040202018BE
:10551000201020082008200840082000200840080B
:1055200040102010201020102010201020102010DB
:105530002010201020102010601860188120A12059
:10554000C128E12802312231223963418449A45122
:10555000C45905620562256A456A656A6572A67264
:10556000A67AA67AA67AC682A67AC682C682C7829A
:10557000C782C782A77AA67A867266724672466A20
:10558000266A0562E561E561C459A459835143491E
:1055900022410141E138E138E138E138E138E138D0
:1055A000E138E138E038E038E038E038C030E03069
:1055B000C030E030E038E038E138E038E138013937
:1055C000E138E138E140014101410141014101413E
:1055D0000141014101410141E04001410141E040FF
:1055E000E040014101412149224942494249624981
:1055F0006249625162518249824982498251A35172
:10560000C351C351C359C359E359E359E459E45948
:10561000E459E459C459C451C451A351A34982491E
:10562000624962494241224121390131E130E12898
:10563000C120A01880186010401020080000000051
:105640000000000000002000EFEDCACCE9DCE8E437
:1056500007ED27F527F547F547F547F546FD46FDE4
:1056600046FD66FD86FD86FD85FD65FD65FD65FDE6
:1056700065FD65FD65FD45F545F545F524F504ED4C
:10568000E4E4A4E4A4E4A4E4A5DCA5DC85DC65DC16
:1056900045D425D425CC05CC05C405C4E4BBA4B3AE
:1056A00064AB44A324A3049BE49AC5928592658AC3
:1056B0004582257A047AE471C469A36183618359C0
:1056C000635963596459845984598459845984515C
:1056D0006351634963496349424922490249E240AF
:1056E000E240A138813061286128612040204018C3
:1056F0002010200820082008200820082008400842
:1057000040102010201020102010201820182018E1
:10571000201820184018401881208120A120C1287D
:10572000E22802312239433963418449A551C559E0
:10573000E5590662266A266A466A666A8672A77A0A
:10574000C77AC77AC77AC782C77AC77AC77AC78241
:10575000C882C77AA77AA77A87726672466A466A4B
:1057600026620562E559E559C559A451634943418B
:105770000239E138C130C130C130C130C130C1302F
:10578000C030C130E130E130C030C030C030C03056
:10579000C030E030E030E030E13801390139013922
:1057A000E138E138E140014101410141014101415C
:1057B00001410141014101410041004101410041DC
:1057C000E040004101412141224922492249424908
:1057D0004249424942496241624962498249824999
:1057E000A349A351A351A351C351C351C459C45197
:1057F000C451C451C451C451A34982496249624150
:10580000624142412241213921390131E128C12837
:10581000A12080186010401020082008000000001F
:105820000000000000002008F0EDAACCE9DCC8E48C
:10583000E7EC27F527F547F547F547F546FD46FD23
:1058400066FD66FD86FD86FD65FD84FD85FD65FDC5
:1058500065FD85FD65FD45F544F544F524F504ED4C
:10586000E4E4C4E4A4E4A4DCA5DCA5DC85DC65DC1C
:1058700065DC45D425CC25CC05C405C404BCA4B343
:1058800084AB44A324A3059BC59AC592858A658AE7
:105890004582257AE471E471C469A4618361835906
:1058A0008359635964518459845184598451845172
:1058B00063516349634943494249224902410241D4
:1058C000E240C138813061286128612060204018A1
:1058D00040102010400820084008200820084010F0
:1058E0004010201020104010401840184018401858
:1058F00040184018401861188120A120A128C22812
:10590000E23002314339433964418449C551E65993
:1059100006622662476A466A676A8772A772C77A12
:10592000E87AE87AE882E882E882E87AE882E87A47
:10593000E87AC87AA87AA7728772676A466A266286
:105940002662065AE559E559C551A44963412341E8
:105950000239E130C130E130C130C130C130C13035
:10596000C130C130C130C130C030C030C030C030B3
:10597000C030C030E030E030E138E1380139013981
:10598000E138E138E140014101410141014101417A
:1059900001410141E1400041E1400041E140E0407E
:1059A000E1400041014101410141224122412241A6
:1059B000224142414241424162416241624983493E
:1059C0008349A349A351A351C351C351C451C451E5
:1059D000C451C451A451A4498349824962416241DE
:1059E00042412241013901390131E130E128C12030
:1059F000A12081186010401020080008000000005D
:105A00000000000000002008F0EDAACCCADCC8E4C9
:105A1000E7EC07F507F527F527F547F546FD46FDC1
:105A200046FD66FD86FD86FD65FD85FD85FD65FD02
:105A300065FD65FD65FD45F524F524F524F504EDCA
:105A4000C4E4A4E4A4E4A5E4A5DCA5DC85DC65DC71
:105A500045D425D425CC25CC25C425C404BCA4B369
:105A600084AB44A304A3059BE59AC592858A658A05
:105A70004582257AE471C469C469A461836183594C
:105A80008459845984598459845984598459845136
:105A90008451635163516349424922492249024179
:105AA000E240E238A230812861286120602060183D
:105AB0004018401020102008201020082008201036
:105AC00020102010401060186020602060206020AE
:105AD0006020612061208120A128A228C228E23014
